:020000000B28CB
:10000800DE00030E8312B5000A08B6000A290C2880
:100018002030831384003530E3218301132809300D
:100028008316850083128501E0308B0040308316EB
:100038008C008101813083129F00413083169F001C
:100048000730831299000030C2218312C0000C309F
:100058004002031C32280430C000D721ED20B4012F
:10006800B40A0C304002031C3C280430C000D721DD
:100078002F0803194828D72105114008B100A430DA
:10008800A4000B30A500ED2029082804013003192D
:1000980058282902E2300319280203185728B408FF
:1000A800031D5728851401302902EA300319280254
:1000B800031885100B302102B930031920020318E8
:1000C800B40100302102C93003192002031C8E2814
:1000D800B408031D75280930831685008312A00112
:1000E800A1012A08083E042129083F02031D7E2891
:1000F80028083E0203188228B301B30A2A08F83EEA
:10010800FD202902031D8A283E08280203188E288C
:10011800B301B30A33080319BD2829082B02031DAC
:10012800972828082A0203189B28051685122B08E9
:100138002902031DA1282A0828020318A5288516C4
:1001480005122A08FD3EFD2029083F02031DAE289E
:1001580028083E020318BD282A08033E0421290264
:10016800031DB8283E0828020318BD288512051269
:10017800B3012D080319E5281E08A300A201831660
:100188001E088312A2070318A30A0A30AD0132021F
:100198000318D6282208A6070318A70A2308A707C2
:1001A800B20AE5280A30B700B8012708BA002608BD
:1001B800B9007C213808A9003708A800A601A701C2
:1001C800B20103302C0203189F183528AC019F1484
:1001D80035284008AA00A430AB010310AA0DAB0DC6
:1001E8000310AA0DAB0DAA070318AB0A0130AB0721
:1001F8000800BE002B080318013EFF3EBF000800A0
:10020800BE002B080318013EBF0008000C1F0F2971
:100218000C13AD01AD0A0B1D75290B1127302102F6
:1002280010300319200203181C29A00A0319A10A77
:10023800FA302C02031CAC0A2730250210300319AF
:10024800240203182B29A40A0319A50A2D29A4019D
:10025800A50103302502203003192402031C3D297F
:1002680040083102031C05193D290515A401A50103
:10027800B10A00302502C830031924020318051DED
:1002880048290511A401A50131084006031D562976
:100298000B302502B83003192402031C5629B1017A
:1002A800A401A501851D5D2932302E0203185D29A0
:1002B800AE0A851967292E080319672932303002DA
:1002C80003186729B00A8519752929302E02031CDD
:1002D800752929303002031C7529AF01AF0AAE0118
:1002E800B00136088A00350E8300DE0E5E0E090066
:1002F800BB01BC01380837040319A129BD01BD0A97
:10030800B81B8A290310B70DB80D83290310BB0D3C
:10031800BC0D38083A02031D932937083902031C1B
:100328009D293708B9023808031CBA03BA023B14DE
:100338000310B80CB70CBD0B8A293C08B8003B0861
:10034800B7000800B80083169C18A729831238083C
:1003580083169B008312370883169A003F309C054A
:1003680003108B1B03148B131C1555309D00AA30EA
:100378009D009C141C1103188B170800B700C52991
:100388008312640083169C18C429831237088316C5
:100398009B003F309C051C1403101C180314031801
:1003A80001301A0808000B3040020318C001C00AC7
:1003B8004008B7000030A6218312AF01080064008E
:0E03C8008001840A0406031900340406E429A7
:02400E00D431AB
:00000001FF
